{
  "contractName": "tafitLottery",
  "abi": [
    {
      "inputs": [],
      "stateMutability": "nonpayable",
      "type": "constructor"
    },
    {
      "inputs": [
        {
          "internalType": "uint256",
          "name": "",
          "type": "uint256"
        }
      ],
      "name": "players",
      "outputs": [
        {
          "internalType": "address payable",
          "name": "",
          "type": "address"
        }
      ],
      "stateMutability": "view",
      "type": "function"
    },
    {
      "inputs": [],
      "name": "winner",
      "outputs": [
        {
          "internalType": "address payable",
          "name": "",
          "type": "address"
        }
      ],
      "stateMutability": "view",
      "type": "function"
    },
    {
      "inputs": [],
      "name": "toPlay",
      "outputs": [],
      "stateMutability": "payable",
      "type": "function"
    },
    {
      "inputs": [],
      "name": "getBalance",
      "outputs": [
        {
          "internalType": "uint256",
          "name": "",
          "type": "uint256"
        }
      ],
      "stateMutability": "view",
      "type": "function"
    },
    {
      "inputs": [],
      "name": "pickWinner",
      "outputs": [],
      "stateMutability": "nonpayable",
      "type": "function"
    }
  ],
  "bytecode": "0x608060405234801561000f575f80fd5b503373ffffffffffffffffffffffffffffffffffffffff165f8054906101000a90505050610991806100405f395ff3fe608060405260043610610049575f3560e01c806312065fe01461004d5780635d495aea14610077578063cf0a82721461008d578063dfbf53ae14610097578063f71d96cb146100c1575b5f80fd5b348015610058575f80fd5b506100616100fd565b60405161006e91906105ce565b60405180910390f35b348015610082575f80fd5b5061008b610191565b005b6100956103d0565b005b3480156100a2575f80fd5b506100ab61047c565b6040516100b89190610626565b60405180910390f35b3480156100cc575f80fd5b506100e760048036038101906100e2919061066d565b6104a1565b6040516100f49190610626565b60405180910390f35b5f3373ffffffffffffffffffffffffffffffffffffffff165f8054906101000a900473ffffffffffffffffffffffffffffffffffffffff1673ffffffffffffffffffffffffffffffffffffffff161461018b576040517f08c379a0000000000000000000000000000000000000000000000000000000008152600401610182906106f2565b60405180910390fd5b47905090565b3373ffffffffffffffffffffffffffffffffffffffff165f8054906101000a900473ffffffffffffffffffffffffffffffffffffffff1673ffffffffffffffffffffffffffffffffffffffff161461021e576040517f08c379a00000000000000000000000000000000000000000000000000000000081526004016102159061075a565b60405180910390fd5b60036001805490501015610267576040517f08c379a000000000000000000000000000000000000000000000000000000000815260040161025e906107c2565b60405180910390fd5b5f6102706104dc565b90505f60018054905082610284919061080d565b90506001818154811061029a5761029961083d565b5b905f5260205f20015f9054906101000a900473ffffffffffffffffffffffffffffffffffffffff1660025f6101000a81548173ffffffffffffffffffffffffffffffffffffffff021916908373ffffffffffffffffffffffffffffffffffffffff16021790555060025f9054906101000a900473ffffffffffffffffffffffffffffffffffffffff1673ffffffffffffffffffffffffffffffffffffffff166108fc6103446100fd565b90811502906040515f60405180830381858888f1935050505015801561036c573d5f803e3d5ffd5b505f67ffffffffffffffff8111156103875761038661086a565b5b6040519080825280602002602001820160405280156103b55781602001602082028036833780820191505090505b50600190805190602001906103cb929190610514565b505050565b678ac7230489e80000341461041a576040517f08c379a0000000000000000000000000000000000000000000000000000000008152600401610411906108e1565b60405180910390fd5b600133908060018154018082558091505060019003905f5260205f20015f9091909190916101000a81548173ffffffffffffffffffffffffffffffffffffffff021916908373ffffffffffffffffffffffffffffffffffffffff160217905550565b60025f9054906101000a900473ffffffffffffffffffffffffffffffffffffffff1681565b600181815481106104b0575f80fd5b905f5260205f20015f915054906101000a900473ffffffffffffffffffffffffffffffffffffffff1681565b5f42446001805490506040516020016104f79392919061091f565b604051602081830303815290604052805190602001205f1c905090565b828054828255905f5260205f2090810192821561058a579160200282015b82811115610589578251825f6101000a81548173ffffffffffffffffffffffffffffffffffffffff021916908373ffffffffffffffffffffffffffffffffffffffff16021790555091602001919060010190610532565b5b509050610597919061059b565b5090565b5b808211156105b2575f815f90555060010161059c565b5090565b5f819050919050565b6105c8816105b6565b82525050565b5f6020820190506105e15f8301846105bf565b92915050565b5f73ffffffffffffffffffffffffffffffffffffffff82169050919050565b5f610610826105e7565b9050919050565b61062081610606565b82525050565b5f6020820190506106395f830184610617565b92915050565b5f80fd5b61064c816105b6565b8114610656575f80fd5b50565b5f8135905061066781610643565b92915050565b5f602082840312156106825761068161063f565b5b5f61068f84828501610659565b91505092915050565b5f82825260208201905092915050565b7f596f7520617265206e6f7420746865206d616e616765720000000000000000005f82015250565b5f6106dc601783610698565b91506106e7826106a8565b602082019050919050565b5f6020820190508181035f830152610709816106d0565b9050919050565b7f596f7520617265206e6f7420746865206d616e616765722000000000000000005f82015250565b5f610744601883610698565b915061074f82610710565b602082019050919050565b5f6020820190508181035f83015261077181610738565b9050919050565b7f506c6179657220617265206c657373207468616e2033000000000000000000005f82015250565b5f6107ac601683610698565b91506107b782610778565b602082019050919050565b5f6020820190508181035f8301526107d9816107a0565b9050919050565b7f4e487b71000000000000000000000000000000000000000000000000000000005f52601260045260245ffd5b5f610817826105b6565b9150610822836105b6565b925082610832576108316107e0565b5b828206905092915050565b7f4e487b71000000000000000000000000000000000000000000000000000000005f52603260045260245ffd5b7f4e487b71000000000000000000000000000000000000000000000000000000005f52604160045260245ffd5b7f506c6561736520706179202e30303120657468657220746f20706c61792000005f82015250565b5f6108cb601e83610698565b91506108d682610897565b602082019050919050565b5f6020820190508181035f8301526108f8816108bf565b9050919050565b5f819050919050565b610919610914826105b6565b6108ff565b82525050565b5f61092a8286610908565b60208201915061093a8285610908565b60208201915061094a8284610908565b60208201915081905094935050505056fea2646970667358221220df4a9b5a62f8393413a0ab30150acf7dc2e3cdf0b141611f4bee2cac1a8a1f1864736f6c63430008140033",
  "immutableReferences": {},
  "source": "// SPDX-License-Identifier: GPL-3.0\npragma solidity >=0.5.6 <0.8.21;\n\n\ncontract tafitLottery{\n //entities - manager, players and winner\n address private  manager;\n address payable[] public players;\n address payable  public winner;\n\n    constructor(){\n        manager==msg.sender;\n    }  \n\n    function toPlay() public payable{\n        require(msg.value==10 ether, \"Please pay .001 ether to play \");\n        players.push(payable(msg.sender));\n    }\n\n    function getBalance()public view returns(uint){\n        require(manager==msg.sender, \"You are not the manager\");\n        return address(this).balance;\n    }\n    function random()internal view returns(uint){\n\n        return uint(keccak256(abi.encodePacked(block.timestamp,block.prevrandao,players.length)));\n\n    }\n\n    function pickWinner() public{\n        require(manager==msg.sender, \"You are not the manager \");\n        require(players.length>=3,\"Player are less than 3\");\n\n        uint r=random();\n        uint index=r%players.length;\n        winner=players[index];\n        winner.transfer(getBalance());\n        players=new address payable[](0);//this will reset the players pool\n    }\n\n\n}",
  "sourcePath": "/home/tafittech/Desktop/eth_tafit_project/truffle/faucet/contracts/tafitlottery.sol",
  "compiler": {
    "name": "solc",
    "version": "0.8.20+commit.a1b79de6.Emscripten.clang"
  },
  "schemaVersion": "3.4.14",
  "updatedAt": "2023-06-27T08:18:07.438Z",
  "devdoc": {
    "kind": "dev",
    "methods": {},
    "version": 1
  },
  "userdoc": {
    "kind": "user",
    "methods": {},
    "version": 1
  }
}