{
  "contractName": "tafitLottery",
  "abi": [
    {
      "inputs": [],
      "stateMutability": "nonpayable",
      "type": "constructor"
    },
    {
      "inputs": [
        {
          "internalType": "uint256",
          "name": "",
          "type": "uint256"
        }
      ],
      "name": "players",
      "outputs": [
        {
          "internalType": "address payable",
          "name": "",
          "type": "address"
        }
      ],
      "stateMutability": "view",
      "type": "function",
      "constant": true
    },
    {
      "inputs": [],
      "name": "winner",
      "outputs": [
        {
          "internalType": "address payable",
          "name": "",
          "type": "address"
        }
      ],
      "stateMutability": "view",
      "type": "function",
      "constant": true
    },
    {
      "inputs": [],
      "name": "toPlay",
      "outputs": [],
      "stateMutability": "payable",
      "type": "function",
      "payable": true
    },
    {
      "inputs": [],
      "name": "getBalance",
      "outputs": [
        {
          "internalType": "uint256",
          "name": "",
          "type": "uint256"
        }
      ],
      "stateMutability": "view",
      "type": "function",
      "constant": true
    },
    {
      "inputs": [],
      "name": "pickWinner",
      "outputs": [],
      "stateMutability": "nonpayable",
      "type": "function"
    }
  ],
  "bytecode": "0x608060405234801561001057600080fd5b503373ffffffffffffffffffffffffffffffffffffffff1660008054906101000a905050506109d9806100446000396000f3fe60806040526004361061004a5760003560e01c806312065fe01461004f5780635d495aea1461007a578063cf0a827214610091578063dfbf53ae1461009b578063f71d96cb146100c6575b600080fd5b34801561005b57600080fd5b50610064610103565b60405161007191906105f1565b60405180910390f35b34801561008657600080fd5b5061008f610199565b005b6100996103e4565b005b3480156100a757600080fd5b506100b0610492565b6040516100bd919061064d565b60405180910390f35b3480156100d257600080fd5b506100ed60048036038101906100e89190610699565b6104b8565b6040516100fa919061064d565b60405180910390f35b60003373ffffffffffffffffffffffffffffffffffffffff1660008054906101000a900473ffffffffffffffffffffffffffffffffffffffff1673ffffffffffffffffffffffffffffffffffffffff1614610193576040517f08c379a000000000000000000000000000000000000000000000000000000000815260040161018a90610723565b60405180910390fd5b47905090565b3373ffffffffffffffffffffffffffffffffffffffff1660008054906101000a900473ffffffffffffffffffffffffffffffffffffffff1673ffffffffffffffffffffffffffffffffffffffff1614610227576040517f08c379a000000000000000000000000000000000000000000000000000000000815260040161021e9061078f565b60405180910390fd5b60036001805490501015610270576040517f08c379a0000000000000000000000000000000000000000000000000000000008152600401610267906107fb565b60405180910390fd5b600061027a6104f7565b905060006001805490508261028f919061084a565b9050600181815481106102a5576102a461087b565b5b9060005260206000200160009054906101000a900473ffffffffffffffffffffffffffffffffffffffff16600260006101000a81548173ffffffffffffffffffffffffffffffffffffffff021916908373ffffffffffffffffffffffffffffffffffffffff160217905550600260009054906101000a900473ffffffffffffffffffffffffffffffffffffffff1673ffffffffffffffffffffffffffffffffffffffff166108fc610354610103565b9081150290604051600060405180830381858888f1935050505015801561037f573d6000803e3d6000fd5b50600067ffffffffffffffff81111561039b5761039a6108aa565b5b6040519080825280602002602001820160405280156103c95781602001602082028036833780820191505090505b50600190805190602001906103df929190610531565b505050565b66038d7ea4c68000341461042d576040517f08c379a000000000000000000000000000000000000000000000000000000000815260040161042490610925565b60405180910390fd5b6001339080600181540180825580915050600190039060005260206000200160009091909190916101000a81548173ffffffffffffffffffffffffffffffffffffffff021916908373ffffffffffffffffffffffffffffffffffffffff160217905550565b600260009054906101000a900473ffffffffffffffffffffffffffffffffffffffff1681565b600181815481106104c857600080fd5b906000526020600020016000915054906101000a900473ffffffffffffffffffffffffffffffffffffffff1681565b6000424460018054905060405160200161051393929190610966565b6040516020818303038152906040528051906020012060001c905090565b8280548282559060005260206000209081019282156105aa579160200282015b828111156105a95782518260006101000a81548173ffffffffffffffffffffffffffffffffffffffff021916908373ffffffffffffffffffffffffffffffffffffffff16021790555091602001919060010190610551565b5b5090506105b791906105bb565b5090565b5b808211156105d45760008160009055506001016105bc565b5090565b6000819050919050565b6105eb816105d8565b82525050565b600060208201905061060660008301846105e2565b92915050565b600073ffffffffffffffffffffffffffffffffffffffff82169050919050565b60006106378261060c565b9050919050565b6106478161062c565b82525050565b6000602082019050610662600083018461063e565b92915050565b600080fd5b610676816105d8565b811461068157600080fd5b50565b6000813590506106938161066d565b92915050565b6000602082840312156106af576106ae610668565b5b60006106bd84828501610684565b91505092915050565b600082825260208201905092915050565b7f596f7520617265206e6f7420746865206d616e61676572000000000000000000600082015250565b600061070d6017836106c6565b9150610718826106d7565b602082019050919050565b6000602082019050818103600083015261073c81610700565b9050919050565b7f596f7520617265206e6f7420746865206d616e61676572200000000000000000600082015250565b60006107796018836106c6565b915061078482610743565b602082019050919050565b600060208201905081810360008301526107a88161076c565b9050919050565b7f506c6179657220617265206c657373207468616e203300000000000000000000600082015250565b60006107e56016836106c6565b91506107f0826107af565b602082019050919050565b60006020820190508181036000830152610814816107d8565b9050919050565b7f4e487b7100000000000000000000000000000000000000000000000000000000600052601260045260246000fd5b6000610855826105d8565b9150610860836105d8565b9250826108705761086f61081b565b5b828206905092915050565b7f4e487b7100000000000000000000000000000000000000000000000000000000600052603260045260246000fd5b7f4e487b7100000000000000000000000000000000000000000000000000000000600052604160045260246000fd5b7f506c6561736520706179202e30303120657468657220746f20706c6179200000600082015250565b600061090f601e836106c6565b915061091a826108d9565b602082019050919050565b6000602082019050818103600083015261093e81610902565b9050919050565b6000819050919050565b61096061095b826105d8565b610945565b82525050565b6000610972828661094f565b602082019150610982828561094f565b602082019150610992828461094f565b60208201915081905094935050505056fea264697066735822122059561e0f7afd6ffe9e38b43a99dd8badf88b9e2eab6600dc9f2fb1ab51fd600b64736f6c63430008130033",
  "immutableReferences": {},
  "source": "// SPDX-License-Identifier: GPL-3.0\npragma solidity >=0.8.9 <0.8.20;\n\n\ncontract tafitLottery{\n //entities - manager, players and winner\n address private  manager;\n address payable[] public players;\n address payable  public winner;\n\n    constructor(){\n        manager==msg.sender;\n    }  \n\n    function toPlay() public payable{\n        require(msg.value==0.001 ether, \"Please pay .001 ether to play \");\n        players.push(payable(msg.sender));\n    }\n\n    function getBalance()public view returns(uint){\n        require(manager==msg.sender, \"You are not the manager\");\n        return address(this).balance;\n    }\n    function random()internal view returns(uint){\n\n        return uint(keccak256(abi.encodePacked(block.timestamp,block.prevrandao,players.length)));\n\n    }\n\n    function pickWinner() public{\n        require(manager==msg.sender, \"You are not the manager \");\n        require(players.length>=3,\"Player are less than 3\");\n\n        uint r=random();\n        uint index=r%players.length;\n        winner=players[index];\n        winner.transfer(getBalance());\n        players=new address payable[](0);//this will reset the players pool\n    }\n\n\n}",
  "sourcePath": "/home/tafittech/Desktop/eth_tafit_project/truffle/contracts/tafitlottery.sol",
  "compiler": {
    "name": "solc",
    "version": "0.8.19+commit.7dd6d404.Emscripten.clang"
  },
  "schemaVersion": "3.4.14",
  "updatedAt": "2023-06-24T12:54:31.520Z",
  "networkType": "ethereum",
  "devdoc": {
    "kind": "dev",
    "methods": {},
    "version": 1
  },
  "userdoc": {
    "kind": "user",
    "methods": {},
    "version": 1
  }
}