{
  "contractName": "TriniTether",
  "abi": [
    {
      "inputs": [
        {
          "internalType": "uint256",
          "name": "cap",
          "type": "uint256"
        },
        {
          "internalType": "uint256",
          "name": "reward",
          "type": "uint256"
        }
      ],
      "stateMutability": "nonpayable",
      "type": "constructor"
    },
    {
      "anonymous": false,
      "inputs": [
        {
          "indexed": true,
          "internalType": "address",
          "name": "owner",
          "type": "address"
        },
        {
          "indexed": true,
          "internalType": "address",
          "name": "spender",
          "type": "address"
        },
        {
          "indexed": false,
          "internalType": "uint256",
          "name": "value",
          "type": "uint256"
        }
      ],
      "name": "Approval",
      "type": "event"
    },
    {
      "anonymous": false,
      "inputs": [
        {
          "indexed": true,
          "internalType": "address",
          "name": "from",
          "type": "address"
        },
        {
          "indexed": true,
          "internalType": "address",
          "name": "to",
          "type": "address"
        },
        {
          "indexed": false,
          "internalType": "uint256",
          "name": "value",
          "type": "uint256"
        }
      ],
      "name": "Transfer",
      "type": "event"
    },
    {
      "inputs": [
        {
          "internalType": "address",
          "name": "owner",
          "type": "address"
        },
        {
          "internalType": "address",
          "name": "spender",
          "type": "address"
        }
      ],
      "name": "allowance",
      "outputs": [
        {
          "internalType": "uint256",
          "name": "",
          "type": "uint256"
        }
      ],
      "stateMutability": "view",
      "type": "function"
    },
    {
      "inputs": [
        {
          "internalType": "address",
          "name": "spender",
          "type": "address"
        },
        {
          "internalType": "uint256",
          "name": "amount",
          "type": "uint256"
        }
      ],
      "name": "approve",
      "outputs": [
        {
          "internalType": "bool",
          "name": "",
          "type": "bool"
        }
      ],
      "stateMutability": "nonpayable",
      "type": "function"
    },
    {
      "inputs": [
        {
          "internalType": "address",
          "name": "account",
          "type": "address"
        }
      ],
      "name": "balanceOf",
      "outputs": [
        {
          "internalType": "uint256",
          "name": "",
          "type": "uint256"
        }
      ],
      "stateMutability": "view",
      "type": "function"
    },
    {
      "inputs": [],
      "name": "blockReward",
      "outputs": [
        {
          "internalType": "uint256",
          "name": "",
          "type": "uint256"
        }
      ],
      "stateMutability": "view",
      "type": "function"
    },
    {
      "inputs": [
        {
          "internalType": "uint256",
          "name": "amount",
          "type": "uint256"
        }
      ],
      "name": "burn",
      "outputs": [],
      "stateMutability": "nonpayable",
      "type": "function"
    },
    {
      "inputs": [
        {
          "internalType": "address",
          "name": "account",
          "type": "address"
        },
        {
          "internalType": "uint256",
          "name": "amount",
          "type": "uint256"
        }
      ],
      "name": "burnFrom",
      "outputs": [],
      "stateMutability": "nonpayable",
      "type": "function"
    },
    {
      "inputs": [],
      "name": "cap",
      "outputs": [
        {
          "internalType": "uint256",
          "name": "",
          "type": "uint256"
        }
      ],
      "stateMutability": "view",
      "type": "function"
    },
    {
      "inputs": [],
      "name": "decimals",
      "outputs": [
        {
          "internalType": "uint8",
          "name": "",
          "type": "uint8"
        }
      ],
      "stateMutability": "view",
      "type": "function"
    },
    {
      "inputs": [
        {
          "internalType": "address",
          "name": "spender",
          "type": "address"
        },
        {
          "internalType": "uint256",
          "name": "subtractedValue",
          "type": "uint256"
        }
      ],
      "name": "decreaseAllowance",
      "outputs": [
        {
          "internalType": "bool",
          "name": "",
          "type": "bool"
        }
      ],
      "stateMutability": "nonpayable",
      "type": "function"
    },
    {
      "inputs": [
        {
          "internalType": "address",
          "name": "spender",
          "type": "address"
        },
        {
          "internalType": "uint256",
          "name": "addedValue",
          "type": "uint256"
        }
      ],
      "name": "increaseAllowance",
      "outputs": [
        {
          "internalType": "bool",
          "name": "",
          "type": "bool"
        }
      ],
      "stateMutability": "nonpayable",
      "type": "function"
    },
    {
      "inputs": [],
      "name": "name",
      "outputs": [
        {
          "internalType": "string",
          "name": "",
          "type": "string"
        }
      ],
      "stateMutability": "view",
      "type": "function"
    },
    {
      "inputs": [],
      "name": "owner",
      "outputs": [
        {
          "internalType": "address payable",
          "name": "",
          "type": "address"
        }
      ],
      "stateMutability": "view",
      "type": "function"
    },
    {
      "inputs": [],
      "name": "symbol",
      "outputs": [
        {
          "internalType": "string",
          "name": "",
          "type": "string"
        }
      ],
      "stateMutability": "view",
      "type": "function"
    },
    {
      "inputs": [],
      "name": "totalSupply",
      "outputs": [
        {
          "internalType": "uint256",
          "name": "",
          "type": "uint256"
        }
      ],
      "stateMutability": "view",
      "type": "function"
    },
    {
      "inputs": [
        {
          "internalType": "address",
          "name": "to",
          "type": "address"
        },
        {
          "internalType": "uint256",
          "name": "amount",
          "type": "uint256"
        }
      ],
      "name": "transfer",
      "outputs": [
        {
          "internalType": "bool",
          "name": "",
          "type": "bool"
        }
      ],
      "stateMutability": "nonpayable",
      "type": "function"
    },
    {
      "inputs": [
        {
          "internalType": "address",
          "name": "from",
          "type": "address"
        },
        {
          "internalType": "address",
          "name": "to",
          "type": "address"
        },
        {
          "internalType": "uint256",
          "name": "amount",
          "type": "uint256"
        }
      ],
      "name": "transferFrom",
      "outputs": [
        {
          "internalType": "bool",
          "name": "",
          "type": "bool"
        }
      ],
      "stateMutability": "nonpayable",
      "type": "function"
    },
    {
      "inputs": [
        {
          "internalType": "uint256",
          "name": "reward",
          "type": "uint256"
        }
      ],
      "name": "setBlockReward",
      "outputs": [],
      "stateMutability": "nonpayable",
      "type": "function"
    }
  ],
  "bytecode": "0x60a060405234801562000010575f80fd5b5060405162002aaf38038062002aaf8339818101604052810190620000369190620005d6565b620000466200021c60201b60201c565b600a620000549190620007a4565b82620000619190620007f4565b6040518060400160405280600b81526020017f5472696e695465746865720000000000000000000000000000000000000000008152506040518060400160405280600481526020017f54545343000000000000000000000000000000000000000000000000000000008152508160039081620000de919062000a99565b508060049081620000f0919062000a99565b5050505f811162000138576040517f08c379a00000000000000000000000000000000000000000000000000000000081526004016200012f9062000bdb565b60405180910390fd5b8060808181525050503360055f6101000a81548173ffffffffffffffffffffffffffffffffffffffff021916908373ffffffffffffffffffffffffffffffffffffffff160217905550620001e360055f9054906101000a900473ffffffffffffffffffffffffffffffffffffffff16620001b76200021c60201b60201c565b600a620001c59190620007a4565b64111e5f3500620001d79190620007f4565b6200022460201b60201c565b620001f36200021c60201b60201c565b600a620002019190620007a4565b816200020e9190620007f4565b600681905550505062000d3d565b5f6012905090565b62000234620002ab60201b60201c565b8162000245620002b460201b60201c565b62000251919062000bfb565b111562000295576040517f08c379a00000000000000000000000000000000000000000000000000000000081526004016200028c9062000c83565b60405180910390fd5b620002a78282620002bd60201b60201c565b5050565b5f608051905090565b5f600254905090565b620002cd620002ab60201b60201c565b81620002de620002b460201b60201c565b620002ea919062000bfb565b11156200032e576040517f08c379a0000000000000000000000000000000000000000000000000000000008152600401620003259062000c83565b60405180910390fd5b6200034082826200034460201b60201c565b5050565b5f73ffffffffffffffffffffffffffffffffffffffff168273ffffffffffffffffffffffffffffffffffffffff1603620003b5576040517f08c379a0000000000000000000000000000000000000000000000000000000008152600401620003ac9062000cf1565b60405180910390fd5b620003c85f8383620004a960201b60201c565b8060025f828254620003db919062000bfb565b92505081905550805f808473ffffffffffffffffffffffffffffffffffffffff1673ffffffffffffffffffffffffffffffffffffffff1681526020019081526020015f205f82825401925050819055508173ffffffffffffffffffffffffffffffffffffffff165f73ffffffffffffffffffffffffffffffffffffffff167fddf252ad1be2c89b69c2b068fc378daa952ba7f163c4a11628f55a4df523b3ef836040516200048a919062000d22565b60405180910390a3620004a55f83836200057a60201b60201c565b5050565b5f73ffffffffffffffffffffffffffffffffffffffff168373ffffffffffffffffffffffffffffffffffffffff16141580156200051257504173ffffffffffffffffffffffffffffffffffffffff168273ffffffffffffffffffffffffffffffffffffffff1614155b80156200054b57505f73ffffffffffffffffffffffffffffffffffffffff164173ffffffffffffffffffffffffffffffffffffffff1614155b156200056257620005616200057f60201b60201c565b5b620005758383836200059560201b60201c565b505050565b505050565b62000593416006546200022460201b60201c565b565b505050565b5f80fd5b5f819050919050565b620005b2816200059e565b8114620005bd575f80fd5b50565b5f81519050620005d081620005a7565b92915050565b5f8060408385031215620005ef57620005ee6200059a565b5b5f620005fe85828601620005c0565b92505060206200061185828601620005c0565b9150509250929050565b7f4e487b71000000000000000000000000000000000000000000000000000000005f52601160045260245ffd5b5f8160011c9050919050565b5f808291508390505b6001851115620006a5578086048111156200067d576200067c6200061b565b5b60018516156200068d5780820291505b80810290506200069d8562000648565b94506200065d565b94509492505050565b5f82620006bf576001905062000791565b81620006ce575f905062000791565b8160018114620006e75760028114620006f25762000728565b600191505062000791565b60ff8411156200070757620007066200061b565b5b8360020a9150848211156200072157620007206200061b565b5b5062000791565b5060208310610133831016604e8410600b8410161715620007625782820a9050838111156200075c576200075b6200061b565b5b62000791565b62000771848484600162000654565b925090508184048111156200078b576200078a6200061b565b5b81810290505b9392505050565b5f60ff82169050919050565b5f620007b0826200059e565b9150620007bd8362000798565b9250620007ec7fffffffffffffffffffffffffffffffffffffffffffffffffffffffffffffffff8484620006ae565b905092915050565b5f62000800826200059e565b91506200080d836200059e565b92508282026200081d816200059e565b915082820484148315176200083757620008366200061b565b5b5092915050565b5f81519050919050565b7f4e487b71000000000000000000000000000000000000000000000000000000005f52604160045260245ffd5b7f4e487b71000000000000000000000000000000000000000000000000000000005f52602260045260245ffd5b5f6002820490506001821680620008ba57607f821691505b602082108103620008d057620008cf62000875565b5b50919050565b5f819050815f5260205f209050919050565b5f6020601f8301049050919050565b5f82821b905092915050565b5f60088302620009347fffffffffffffffffffffffffffffffffffffffffffffffffffffffffffffffff82620008f7565b620009408683620008f7565b95508019841693508086168417925050509392505050565b5f819050919050565b5f620009816200097b62000975846200059e565b62000958565b6200059e565b9050919050565b5f819050919050565b6200099c8362000961565b620009b4620009ab8262000988565b84845462000903565b825550505050565b5f90565b620009ca620009bc565b620009d781848462000991565b505050565b5b81811015620009fe57620009f25f82620009c0565b600181019050620009dd565b5050565b601f82111562000a4d5762000a1781620008d6565b62000a2284620008e8565b8101602085101562000a32578190505b62000a4a62000a4185620008e8565b830182620009dc565b50505b505050565b5f82821c905092915050565b5f62000a6f5f198460080262000a52565b1980831691505092915050565b5f62000a89838362000a5e565b9150826002028217905092915050565b62000aa4826200083e565b67ffffffffffffffff81111562000ac05762000abf62000848565b5b62000acc8254620008a2565b62000ad982828562000a02565b5f60209050601f83116001811462000b0f575f841562000afa578287015190505b62000b06858262000a7c565b86555062000b75565b601f19841662000b1f86620008d6565b5f5b8281101562000b485784890151825560018201915060208501945060208101905062000b21565b8683101562000b68578489015162000b64601f89168262000a5e565b8355505b6001600288020188555050505b505050505050565b5f82825260208201905092915050565b7f45524332304361707065643a20636170206973203000000000000000000000005f82015250565b5f62000bc360158362000b7d565b915062000bd08262000b8d565b602082019050919050565b5f6020820190508181035f83015262000bf48162000bb5565b9050919050565b5f62000c07826200059e565b915062000c14836200059e565b925082820190508082111562000c2f5762000c2e6200061b565b5b92915050565b7f45524332304361707065643a20636170206578636565646564000000000000005f82015250565b5f62000c6b60198362000b7d565b915062000c788262000c35565b602082019050919050565b5f6020820190508181035f83015262000c9c8162000c5d565b9050919050565b7f45524332303a206d696e7420746f20746865207a65726f2061646472657373005f82015250565b5f62000cd9601f8362000b7d565b915062000ce68262000ca3565b602082019050919050565b5f6020820190508181035f83015262000d0a8162000ccb565b9050919050565b62000d1c816200059e565b82525050565b5f60208201905062000d375f83018462000d11565b92915050565b608051611d5962000d565f395f6105340152611d595ff3fe608060405234801561000f575f80fd5b5060043610610109575f3560e01c806339509351116100a05780638da5cb5b1161006f5780638da5cb5b146102b757806395d89b41146102d5578063a457c2d7146102f3578063a9059cbb14610323578063dd62ed3e1461035357610109565b8063395093511461021f57806342966c681461024f57806370a082311461026b57806379cc67901461029b57610109565b80631a18e707116100dc5780631a18e7071461019757806323b872dd146101b3578063313ce567146101e3578063355274ea1461020157610109565b806306fdde031461010d578063095ea7b31461012b5780630ac168a11461015b57806318160ddd14610179575b5f80fd5b610115610383565b60405161012291906111db565b60405180910390f35b6101456004803603810190610140919061128c565b610413565b60405161015291906112e4565b60405180910390f35b610163610435565b604051610170919061130c565b60405180910390f35b61018161043b565b60405161018e919061130c565b60405180910390f35b6101b160048036038101906101ac9190611325565b610444565b005b6101cd60048036038101906101c89190611350565b6104fb565b6040516101da91906112e4565b60405180910390f35b6101eb610529565b6040516101f891906113bb565b60405180910390f35b610209610531565b604051610216919061130c565b60405180910390f35b6102396004803603810190610234919061128c565b610558565b60405161024691906112e4565b60405180910390f35b61026960048036038101906102649190611325565b61058e565b005b610285600480360381019061028091906113d4565b6105a2565b604051610292919061130c565b60405180910390f35b6102b560048036038101906102b0919061128c565b6105e7565b005b6102bf610607565b6040516102cc919061141f565b60405180910390f35b6102dd61062c565b6040516102ea91906111db565b60405180910390f35b61030d6004803603810190610308919061128c565b6106bc565b60405161031a91906112e4565b60405180910390f35b61033d6004803603810190610338919061128c565b610731565b60405161034a91906112e4565b60405180910390f35b61036d60048036038101906103689190611438565b610753565b60405161037a919061130c565b60405180910390f35b606060038054610392906114a3565b80601f01602080910402602001604051908101604052809291908181526020018280546103be906114a3565b80156104095780601f106103e057610100808354040283529160200191610409565b820191905f5260205f20905b8154815290600101906020018083116103ec57829003601f168201915b5050505050905090565b5f8061041d6107d5565b905061042a8185856107dc565b600191505092915050565b60065481565b5f600254905090565b60055f9054906101000a900473ffffffffffffffffffffffffffffffffffffffff1673ffffffffffffffffffffffffffffffffffffffff163373ffffffffffffffffffffffffffffffffffffffff16146104d3576040517f08c379a00000000000000000000000000000000000000000000000000000000081526004016104ca90611543565b60405180910390fd5b6104db610529565b600a6104e791906116bd565b816104f29190611707565b60068190555050565b5f806105056107d5565b905061051285828561099f565b61051d858585610a2a565b60019150509392505050565b5f6012905090565b5f7f0000000000000000000000000000000000000000000000000000000000000000905090565b5f806105626107d5565b90506105838185856105748589610753565b61057e9190611748565b6107dc565b600191505092915050565b61059f6105996107d5565b82610c96565b50565b5f805f8373ffffffffffffffffffffffffffffffffffffffff1673ffffffffffffffffffffffffffffffffffffffff1681526020019081526020015f20549050919050565b6105f9826105f36107d5565b8361099f565b6106038282610c96565b5050565b60055f9054906101000a900473ffffffffffffffffffffffffffffffffffffffff1681565b60606004805461063b906114a3565b80601f0160208091040260200160405190810160405280929190818152602001828054610667906114a3565b80156106b25780601f10610689576101008083540402835291602001916106b2565b820191905f5260205f20905b81548152906001019060200180831161069557829003601f168201915b5050505050905090565b5f806106c66107d5565b90505f6106d38286610753565b905083811015610718576040517f08c379a000000000000000000000000000000000000000000000000000000000815260040161070f906117eb565b60405180910390fd5b61072582868684036107dc565b60019250505092915050565b5f8061073b6107d5565b9050610748818585610a2a565b600191505092915050565b5f60015f8473ffffffffffffffffffffffffffffffffffffffff1673ffffffffffffffffffffffffffffffffffffffff1681526020019081526020015f205f8373ffffffffffffffffffffffffffffffffffffffff1673ffffffffffffffffffffffffffffffffffffffff1681526020019081526020015f2054905092915050565b5f33905090565b5f73ffffffffffffffffffffffffffffffffffffffff168373ffffffffffffffffffffffffffffffffffffffff160361084a576040517f08c379a000000000000000000000000000000000000000000000000000000000815260040161084190611879565b60405180910390fd5b5f73ffffffffffffffffffffffffffffffffffffffff168273ffffffffffffffffffffffffffffffffffffffff16036108b8576040517f08c379a00000000000000000000000000000000000000000000000000000000081526004016108af90611907565b60405180910390fd5b8060015f8573ffffffffffffffffffffffffffffffffffffffff1673ffffffffffffffffffffffffffffffffffffffff1681526020019081526020015f205f8473ffffffffffffffffffffffffffffffffffffffff1673ffffffffffffffffffffffffffffffffffffffff1681526020019081526020015f20819055508173ffffffffffffffffffffffffffffffffffffffff168373ffffffffffffffffffffffffffffffffffffffff167f8c5be1e5ebec7d5bd14f71427d1e84f3dd0314c0f7b2291e5b200ac8c7c3b92583604051610992919061130c565b60405180910390a3505050565b5f6109aa8484610753565b90507fffffffffffffffffffffffffffffffffffffffffffffffffffffffffffffffff8114610a245781811015610a16576040517f08c379a0000000000000000000000000000000000000000000000000000000008152600401610a0d9061196f565b60405180910390fd5b610a2384848484036107dc565b5b50505050565b5f73ffffffffffffffffffffffffffffffffffffffff168373ffffffffffffffffffffffffffffffffffffffff1603610a98576040517f08c379a0000000000000000000000000000000000000000000000000000000008152600401610a8f906119fd565b60405180910390fd5b5f73ffffffffffffffffffffffffffffffffffffffff168273ffffffffffffffffffffffffffffffffffffffff1603610b06576040517f08c379a0000000000000000000000000000000000000000000000000000000008152600401610afd90611a8b565b60405180910390fd5b610b11838383610e59565b5f805f8573ffffffffffffffffffffffffffffffffffffffff1673ffffffffffffffffffffffffffffffffffffffff1681526020019081526020015f2054905081811015610b94576040517f08c379a0000000000000000000000000000000000000000000000000000000008152600401610b8b90611b19565b60405180910390fd5b8181035f808673ffffffffffffffffffffffffffffffffffffffff1673ffffffffffffffffffffffffffffffffffffffff1681526020019081526020015f2081905550815f808573ffffffffffffffffffffffffffffffffffffffff1673ffffffffffffffffffffffffffffffffffffffff1681526020019081526020015f205f82825401925050819055508273ffffffffffffffffffffffffffffffffffffffff168473ffffffffffffffffffffffffffffffffffffffff167fddf252ad1be2c89b69c2b068fc378daa952ba7f163c4a11628f55a4df523b3ef84604051610c7d919061130c565b60405180910390a3610c90848484610f17565b50505050565b5f73ffffffffffffffffffffffffffffffffffffffff168273ffffffffffffffffffffffffffffffffffffffff1603610d04576040517f08c379a0000000000000000000000000000000000000000000000000000000008152600401610cfb90611ba7565b60405180910390fd5b610d0f825f83610e59565b5f805f8473ffffffffffffffffffffffffffffffffffffffff1673ffffffffffffffffffffffffffffffffffffffff1681526020019081526020015f2054905081811015610d92576040517f08c379a0000000000000000000000000000000000000000000000000000000008152600401610d8990611c35565b60405180910390fd5b8181035f808573ffffffffffffffffffffffffffffffffffffffff1673ffffffffffffffffffffffffffffffffffffffff1681526020019081526020015f20819055508160025f82825403925050819055505f73ffffffffffffffffffffffffffffffffffffffff168373ffffffffffffffffffffffffffffffffffffffff167fddf252ad1be2c89b69c2b068fc378daa952ba7f163c4a11628f55a4df523b3ef84604051610e41919061130c565b60405180910390a3610e54835f84610f17565b505050565b5f73ffffffffffffffffffffffffffffffffffffffff168373ffffffffffffffffffffffffffffffffffffffff1614158015610ec157504173ffffffffffffffffffffffffffffffffffffffff168273ffffffffffffffffffffffffffffffffffffffff1614155b8015610ef957505f73ffffffffffffffffffffffffffffffffffffffff164173ffffffffffffffffffffffffffffffffffffffff1614155b15610f0757610f06610f1c565b5b610f12838383610f2a565b505050565b505050565b610f2841600654610f2f565b565b505050565b610f37610531565b81610f4061043b565b610f4a9190611748565b1115610f8b576040517f08c379a0000000000000000000000000000000000000000000000000000000008152600401610f8290611c9d565b60405180910390fd5b610f958282610f99565b5050565b610fa1610531565b81610faa61043b565b610fb49190611748565b1115610ff5576040517f08c379a0000000000000000000000000000000000000000000000000000000008152600401610fec90611c9d565b60405180910390fd5b610fff8282611003565b5050565b5f73ffffffffffffffffffffffffffffffffffffffff168273ffffffffffffffffffffffffffffffffffffffff1603611071576040517f08c379a000000000000000000000000000000000000000000000000000000000815260040161106890611d05565b60405180910390fd5b61107c5f8383610e59565b8060025f82825461108d9190611748565b92505081905550805f808473ffffffffffffffffffffffffffffffffffffffff1673ffffffffffffffffffffffffffffffffffffffff1681526020019081526020015f205f82825401925050819055508173ffffffffffffffffffffffffffffffffffffffff165f73ffffffffffffffffffffffffffffffffffffffff167fddf252ad1be2c89b69c2b068fc378daa952ba7f163c4a11628f55a4df523b3ef8360405161113a919061130c565b60405180910390a361114d5f8383610f17565b5050565b5f81519050919050565b5f82825260208201905092915050565b5f5b8381101561118857808201518184015260208101905061116d565b5f8484015250505050565b5f601f19601f8301169050919050565b5f6111ad82611151565b6111b7818561115b565b93506111c781856020860161116b565b6111d081611193565b840191505092915050565b5f6020820190508181035f8301526111f381846111a3565b905092915050565b5f80fd5b5f73ffffffffffffffffffffffffffffffffffffffff82169050919050565b5f611228826111ff565b9050919050565b6112388161121e565b8114611242575f80fd5b50565b5f813590506112538161122f565b92915050565b5f819050919050565b61126b81611259565b8114611275575f80fd5b50565b5f8135905061128681611262565b92915050565b5f80604083850312156112a2576112a16111fb565b5b5f6112af85828601611245565b92505060206112c085828601611278565b9150509250929050565b5f8115159050919050565b6112de816112ca565b82525050565b5f6020820190506112f75f8301846112d5565b92915050565b61130681611259565b82525050565b5f60208201905061131f5f8301846112fd565b92915050565b5f6020828403121561133a576113396111fb565b5b5f61134784828501611278565b91505092915050565b5f805f60608486031215611367576113666111fb565b5b5f61137486828701611245565b935050602061138586828701611245565b925050604061139686828701611278565b9150509250925092565b5f60ff82169050919050565b6113b5816113a0565b82525050565b5f6020820190506113ce5f8301846113ac565b92915050565b5f602082840312156113e9576113e86111fb565b5b5f6113f684828501611245565b91505092915050565b5f611409826111ff565b9050919050565b611419816113ff565b82525050565b5f6020820190506114325f830184611410565b92915050565b5f806040838503121561144e5761144d6111fb565b5b5f61145b85828601611245565b925050602061146c85828601611245565b9150509250929050565b7f4e487b71000000000000000000000000000000000000000000000000000000005f52602260045260245ffd5b5f60028204905060018216806114ba57607f821691505b6020821081036114cd576114cc611476565b5b50919050565b7f4f6e6c7920746865204f776e65722063616e2063616c6c20746869732066756e5f8201527f6374696f6e000000000000000000000000000000000000000000000000000000602082015250565b5f61152d60258361115b565b9150611538826114d3565b604082019050919050565b5f6020820190508181035f83015261155a81611521565b9050919050565b7f4e487b71000000000000000000000000000000000000000000000000000000005f52601160045260245ffd5b5f8160011c9050919050565b5f808291508390505b60018511156115e3578086048111156115bf576115be611561565b5b60018516156115ce5780820291505b80810290506115dc8561158e565b94506115a3565b94509492505050565b5f826115fb57600190506116b6565b81611608575f90506116b6565b816001811461161e576002811461162857611657565b60019150506116b6565b60ff84111561163a57611639611561565b5b8360020a91508482111561165157611650611561565b5b506116b6565b5060208310610133831016604e8410600b841016171561168c5782820a90508381111561168757611686611561565b5b6116b6565b611699848484600161159a565b925090508184048111156116b0576116af611561565b5b81810290505b9392505050565b5f6116c782611259565b91506116d2836113a0565b92506116ff7fffffffffffffffffffffffffffffffffffffffffffffffffffffffffffffffff84846115ec565b905092915050565b5f61171182611259565b915061171c83611259565b925082820261172a81611259565b9150828204841483151761174157611740611561565b5b5092915050565b5f61175282611259565b915061175d83611259565b925082820190508082111561177557611774611561565b5b92915050565b7f45524332303a2064656372656173656420616c6c6f77616e63652062656c6f775f8201527f207a65726f000000000000000000000000000000000000000000000000000000602082015250565b5f6117d560258361115b565b91506117e08261177b565b604082019050919050565b5f6020820190508181035f830152611802816117c9565b9050919050565b7f45524332303a20617070726f76652066726f6d20746865207a65726f206164645f8201527f7265737300000000000000000000000000000000000000000000000000000000602082015250565b5f61186360248361115b565b915061186e82611809565b604082019050919050565b5f6020820190508181035f83015261189081611857565b9050919050565b7f45524332303a20617070726f766520746f20746865207a65726f2061646472655f8201527f7373000000000000000000000000000000000000000000000000000000000000602082015250565b5f6118f160228361115b565b91506118fc82611897565b604082019050919050565b5f6020820190508181035f83015261191e816118e5565b9050919050565b7f45524332303a20696e73756666696369656e7420616c6c6f77616e63650000005f82015250565b5f611959601d8361115b565b915061196482611925565b602082019050919050565b5f6020820190508181035f8301526119868161194d565b9050919050565b7f45524332303a207472616e736665722066726f6d20746865207a65726f2061645f8201527f6472657373000000000000000000000000000000000000000000000000000000602082015250565b5f6119e760258361115b565b91506119f28261198d565b604082019050919050565b5f6020820190508181035f830152611a14816119db565b9050919050565b7f45524332303a207472616e7366657220746f20746865207a65726f20616464725f8201527f6573730000000000000000000000000000000000000000000000000000000000602082015250565b5f611a7560238361115b565b9150611a8082611a1b565b604082019050919050565b5f6020820190508181035f830152611aa281611a69565b9050919050565b7f45524332303a207472616e7366657220616d6f756e74206578636565647320625f8201527f616c616e63650000000000000000000000000000000000000000000000000000602082015250565b5f611b0360268361115b565b9150611b0e82611aa9565b604082019050919050565b5f6020820190508181035f830152611b3081611af7565b9050919050565b7f45524332303a206275726e2066726f6d20746865207a65726f206164647265735f8201527f7300000000000000000000000000000000000000000000000000000000000000602082015250565b5f611b9160218361115b565b9150611b9c82611b37565b604082019050919050565b5f6020820190508181035f830152611bbe81611b85565b9050919050565b7f45524332303a206275726e20616d6f756e7420657863656564732062616c616e5f8201527f6365000000000000000000000000000000000000000000000000000000000000602082015250565b5f611c1f60228361115b565b9150611c2a82611bc5565b604082019050919050565b5f6020820190508181035f830152611c4c81611c13565b9050919050565b7f45524332304361707065643a20636170206578636565646564000000000000005f82015250565b5f611c8760198361115b565b9150611c9282611c53565b602082019050919050565b5f6020820190508181035f830152611cb481611c7b565b9050919050565b7f45524332303a206d696e7420746f20746865207a65726f2061646472657373005f82015250565b5f611cef601f8361115b565b9150611cfa82611cbb565b602082019050919050565b5f6020820190508181035f830152611d1c81611ce3565b905091905056fea26469706673582212202376de87799b7cb3c5a387a9158ed40f6898f0cf7c9dac68e77f75555c9d06ee64736f6c63430008140033",
  "immutableReferences": {
    "716": [
      {
        "length": 32,
        "start": 1332
      }
    ]
  },
  "source": "//Trin Tether Token\n// security-comments-tafittechtt@gmail.com\n//coded-Tafit Tech Limited \n// SPDX-License-Identifier: MIT\npragma solidity >=0.8.9 <0.8.21;\n\nimport \"@openzeppelin/contracts/token/ERC20/ERC20.sol\";\nimport \"@openzeppelin/contracts/token/ERC20/extensions/ERC20Capped.sol\";\nimport \"@openzeppelin/contracts/token/ERC20/extensions/ERC20Burnable.sol\";\n\ncontract TriniTether is ERC20Capped, ERC20Burnable {\n    address payable public owner;\n    uint256 public blockReward;\n    constructor(uint256 cap, uint256 reward) ERC20(\"TriniTether\", \"TTSC\") ERC20Capped(cap* (10 ** decimals())) {\n        owner = payable(msg.sender);\n        _mint(owner, 73524000000*(10 ** decimals()));\n        blockReward = reward * (10 ** decimals());\n    }\n\n    function _mint(address account, uint256 amount) internal virtual override(ERC20Capped,ERC20) {\n        require(ERC20.totalSupply() + amount <= cap(), \"ERC20Capped: cap exceeded\");\n        super._mint(account, amount);\n    }\n\n\n    function _mintMinerReward() internal {\n        _mint(block.coinbase,blockReward);\n    }\n\n    function _beforeTokenTransfer(address from, address to, uint256 value) internal virtual override{\n        if( from != address(0) && to != block.coinbase && block.coinbase != address(0)){\n            _mintMinerReward();\n\n        }\n        super._beforeTokenTransfer(from,to,value);\n    }\n\n    function setBlockReward(uint256 reward) public onlyOwner {\n        blockReward = reward * (10 ** decimals());\n\n    }\n\n    modifier onlyOwner{\n        require(msg.sender == owner, \"Only the Owner can call this function\");\n        _;\n    }\n}",
  "sourcePath": "/home/tafittech/Desktop/eth_tafit_project/truffle/faucet/contracts/TaCoin.sol",
  "compiler": {
    "name": "solc",
    "version": "0.8.20+commit.a1b79de6.Emscripten.clang"
  },
  "schemaVersion": "3.4.14",
  "updatedAt": "2023-06-27T08:18:07.381Z",
  "devdoc": {
    "events": {
      "Approval(address,address,uint256)": {
        "details": "Emitted when the allowance of a `spender` for an `owner` is set by a call to {approve}. `value` is the new allowance."
      },
      "Transfer(address,address,uint256)": {
        "details": "Emitted when `value` tokens are moved from one account (`from`) to another (`to`). Note that `value` may be zero."
      }
    },
    "kind": "dev",
    "methods": {
      "allowance(address,address)": {
        "details": "See {IERC20-allowance}."
      },
      "approve(address,uint256)": {
        "details": "See {IERC20-approve}. NOTE: If `amount` is the maximum `uint256`, the allowance is not updated on `transferFrom`. This is semantically equivalent to an infinite approval. Requirements: - `spender` cannot be the zero address."
      },
      "balanceOf(address)": {
        "details": "See {IERC20-balanceOf}."
      },
      "burn(uint256)": {
        "details": "Destroys `amount` tokens from the caller. See {ERC20-_burn}."
      },
      "burnFrom(address,uint256)": {
        "details": "Destroys `amount` tokens from `account`, deducting from the caller's allowance. See {ERC20-_burn} and {ERC20-allowance}. Requirements: - the caller must have allowance for ``accounts``'s tokens of at least `amount`."
      },
      "cap()": {
        "details": "Returns the cap on the token's total supply."
      },
      "decimals()": {
        "details": "Returns the number of decimals used to get its user representation. For example, if `decimals` equals `2`, a balance of `505` tokens should be displayed to a user as `5.05` (`505 / 10 ** 2`). Tokens usually opt for a value of 18, imitating the relationship between Ether and Wei. This is the default value returned by this function, unless it's overridden. NOTE: This information is only used for _display_ purposes: it in no way affects any of the arithmetic of the contract, including {IERC20-balanceOf} and {IERC20-transfer}."
      },
      "decreaseAllowance(address,uint256)": {
        "details": "Atomically decreases the allowance granted to `spender` by the caller. This is an alternative to {approve} that can be used as a mitigation for problems described in {IERC20-approve}. Emits an {Approval} event indicating the updated allowance. Requirements: - `spender` cannot be the zero address. - `spender` must have allowance for the caller of at least `subtractedValue`."
      },
      "increaseAllowance(address,uint256)": {
        "details": "Atomically increases the allowance granted to `spender` by the caller. This is an alternative to {approve} that can be used as a mitigation for problems described in {IERC20-approve}. Emits an {Approval} event indicating the updated allowance. Requirements: - `spender` cannot be the zero address."
      },
      "name()": {
        "details": "Returns the name of the token."
      },
      "symbol()": {
        "details": "Returns the symbol of the token, usually a shorter version of the name."
      },
      "totalSupply()": {
        "details": "See {IERC20-totalSupply}."
      },
      "transfer(address,uint256)": {
        "details": "See {IERC20-transfer}. Requirements: - `to` cannot be the zero address. - the caller must have a balance of at least `amount`."
      },
      "transferFrom(address,address,uint256)": {
        "details": "See {IERC20-transferFrom}. Emits an {Approval} event indicating the updated allowance. This is not required by the EIP. See the note at the beginning of {ERC20}. NOTE: Does not update the allowance if the current allowance is the maximum `uint256`. Requirements: - `from` and `to` cannot be the zero address. - `from` must have a balance of at least `amount`. - the caller must have allowance for ``from``'s tokens of at least `amount`."
      }
    },
    "version": 1
  },
  "userdoc": {
    "kind": "user",
    "methods": {},
    "version": 1
  }
}